:020000040800F2
:10000000102900209D010008CF200008B91D00081C
:10001000CD20000819030008E927000800000000AF
:10002000000000000000000000000000ED230008B8
:100030008B04000800000000D1200008EF23000816
:10004000B7010008B7010008B7010008B7010008B0
:10005000B7010008B7010008B7010008B7010008A0
:10006000B7010008B7010008B7010008B701000890
:10007000B7010008B7010008B7010008B701000880
:10008000B7010008B7010008B7010008B701000870
:10009000B7010008B7010008B7010008B701000860
:1000A000B7010008B7010008B7010008B701000850
:1000B000B7010008B7010008B7010008B701000840
:1000C000B7010008B7010008B7010008B701000830
:1000D000B7010008DD270008B7010008B7010008D4
:1000E000B7010008B7010008B7010008B701000810
:1000F000B7010008B7010008B7010008B701000800
:10010000B7010008B7010008B7010008B7010008EF
:10011000B7010008B70100089D240008B7010008D6
:10012000B701000841030008B7010008B701000843
:10013000B7010008B7010008B7010008B7010008BF
:10014000B7010008B7010008B7010008B7010008AF
:10015000B7010008B7010008BD030008B701000897
:10016000B7010008B7010008B7010008B70100088F
:10017000B7010008B70100083503000800000000BF
:10018000B7010008B7010008DFF80CD000F0B2F8A2
:1001900000480047E943000810290020064880472E
:1001A00006480047FEE7FEE7FEE7FEE7FEE7FEE75C
:1001B000FEE7FEE7FEE7FEE78D2400088901000860
:1001C0002DE9F05F0546002092469B46884606468C
:1001D000814640241BE0284641464746224600F01F
:1001E00078F853465A46C01A914110D31146184622
:1001F000224600F05FF82D1A67EB01084F462246B1
:100200000120002100F056F817EB00094E41201E96
:10021000A4F10104DFDC484631462A464346BDE8E6
:10022000F09F40EA01039B0703D009E008C9121FB1
:1002300008C0042AFAD203E011F8013B00F8013BA0
:10024000521EF9D27047D2B201E000F8012B491ECC
:10025000FBD270470022F6E710B513460A46044663
:100260001946FFF7F0FF204610BDCAB2401E10F835
:10027000011F8A4202D00029F9D10020704710B531
:10028000002200E0521C835C8C5CA34201D1002B55
:10029000F8D1D8B2E1B2401A10BD30B50446002002
:1002A000034600E05B1C934203D2E05CCD5C401B44
:1002B000F8D030BD202A04DB203A00FA02F10020F9
:1002C00070479140C2F1200320FA03F31943904094
:1002D0007047202A04DB203A21FA02F000217047FF
:1002E00021FA02F3D040C2F120029140084319469E
:1002F00070470000064C074D06E0E06840F001033F
:1003000094E8070098471034AC42F6D3FFF740FF5B
:100310003889000858890008FEE710B5806B816BAA
:10032000496D022902D0012180F8251000F020F942
:1003300010BD0000014800F07BB90000540000200F
:1003400030B41A481B4C1B490068194D194B603CCE
:10035000B839A84202D9164A543A03E0984203D960
:10036000134A583A126804E0A04201D94A6800E0F2
:100370000A6812F4006F17D04FF40062A84202D945
:100380000B484C3803E0984203D9094850380260C2
:1003900004E0A04201D9CA6000E08A600648006813
:1003A000002801D030BC004730BC704794000020CA
:1003B00058640240B86002402C000020014800F060
:1003C00029BB00006402002001681823CAB2103A59
:1003D000B2FBF3F2054B6FF30901032A9B5CC36583
:1003E00000D9091D8165084670470000FC570008C8
:1003F00010B5014600208B698A6A4FF0C07453B172
:10040000B3F5005F15D072B1012A0CD0022A0AD0D0
:10041000032A09D104E01AB1012A06D0022A03D125
:10042000C96AC90100D5012010BDC96AA142FAD02C
:1004300010BD002AF7D0012AF2D0022AF3D0032AF5
:10044000F3D010BD10B5046863608368402B036867
:1004500003D099600068C26010BD9A600068C160F6
:1004600010BD30B50468256825F480252560046832
:1004700063608368402B036803D099600068C260A2
:1004800030BD9A600068C16030BD704772B6FEE74B
:1004900030B5B3F5804F05D06FF0704140F82210B1
:1004A000002030BD8C690B688D6823434C688989B6
:1004B000240144EA0524234343EA014150F8223051
:1004C000014C23401943E9E70000F0CF10B50A685A
:1004D00050F8223023F0010340F822308C68082CB9
:1004E00023D000234A682243CC681C430B69224373
:1004F0001A434B690E4C1A43CB691A430B6A1A43D1
:100500004B6A1A438B6A1A43CB6A1A430B6B1A4322
:100510008B691343CA6B09681A4350F82130A3430F
:10052000134340F82130002010BD4023DAE70000DB
:100530007FFF0F0030B5D1E9003443EA04138C6823
:100540008D89240244EA054423430C8A074D00EBBD
:10055000820005EB045423430C7D6D0105EB04641C
:10056000896923430B434360002030BD0000F0FF46
:100570007047000070B5294A012410684461284979
:100580004878401C48701068C26842F00102C2609E
:10059000C878002841D023480268136823F001037B
:1005A0001360214B1A68D207FCD1006840684FF4F1
:1005B0008062C0F5806080B2904201D9104600E0B0
:1005C00040B3CA684D6902EB8002AA4222D8D1E941
:1005D000035215441A68154B12034FF000020AD457
:1005E00012E000BF03EB820606F58056366845F838
:1005F0002260521C92B28242F4D307E053F8226088
:1006000045F82260521C92B28242F7D3CA6802EBCC
:100610008000C8600C710020C87070BD54000020BC
:1006200024000020940000202864024010050020CF
:100630002DE9F041044600680569264F69074FF02F
:1006400004060FD54661E06B40F00200E06384F8D9
:100650002560A06B0765A06B00F098F910B1A06B46
:10066000FFF75BFEA80711D5216802204861E06B07
:1006700040F00100E06384F82560A06B0765A06B83
:1006800000F084F910B1A06BFFF747FEE80605D52E
:10069000216810204861204600F05EF8280705D543
:1006A000216808204861204600F0F4F8E8070FD0E0
:1006B00020680168890703D5C16821F01E01C16067
:1006C0002068C16821F00101C1602046FFF752FF98
:1006D000BDE8F0811B03000870B5040004D094F855
:1006E0002500002510B109E0012070BD84F82450D8
:1006F000204600F033F8204600F030F8022084F85D
:1007000025002068016840F6F87291430160616934
:1007100060680843D4E9031211430843A168084301
:10072000A1690843216A084321680A6810430860E8
:100730006068102805D1E17FE06961F31F602168DE
:1007400088612068C16841F01E01C160E563012035
:1007500084F82500002070BD704700002DE9F043AB
:1007600087B0064614216846FFF774FD414930689A
:1007700088427BD140480025016841F001010160B9
:1007800000683D4900F00100091F0590086840F02D
:1007900010000860086800F010000590086840F03C
:1007A00001000860086800F001000590086840F04A
:1007B00004000860086800F004000590086840F034
:1007C0000200086008684FF00D0800F00200059074
:1007D0006020022401274FF00309CDF810808DE836
:1007E00091026946254800F0C7FA5020CDF81080E4
:1007F0008DE891026946224800F0BEFA4FF43C6051
:10080000CDF810808DE8910269461E4800F0B4FAD8
:10081000C020CDF810808DE8910269461A4800F09A
:10082000ABFA1B4C194820607806C4E90105C013D7
:10083000C4E90350800060614000A0614011C4E938
:10084000070504206062C4E90A752046256300F0AC
:10085000B1F908B1FFF71AFEB463022211464E2027
:10086000A66300F0FBFB4E2000F0EAFB07B0BDE8FA
:10087000F0830000000005503438024000100240B0
:1008800000000240000802400004024028640240C8
:100890009400002070472DE9F0410446806800254F
:1008A000069E80280ED094F8340001280FD0012035
:1008B00084F8340094F8350001280AD0022528462F
:1008C000BDE8F0814FF4807060650125F7E70220F4
:1008D000F6E7022084F835002068076847F480278F
:1008E00007602068036133462046FFF7ABFD2068B0
:1008F000016841F001010160E1E72DE9F0410446A2
:10090000876D00F03BFB064694F835000025022871
:1009100006D08020606584F834500120BDE8F08165
:100920002068016821F0160101602068416921F00A
:1009300080014161206C08B9A06C20B12068016879
:1009400021F0080101602068016821F001010160C7
:100950000CE000F013FB801B052807D92020606500
:10096000032084F8350084F83450D7E72068006805
:10097000C007EED194F85C103F208840B860012099
:1009800084F8350084F834500020C7E790F835101B
:10099000022903D08021416501207047052180F89C
:1009A00035100068016821F00101016000207047E6
:1009B00070B504002BD094F83500022826D02068AA
:1009C000016821F0010101602068002505602068B0
:1009D0004560206885602068C560206805612168E1
:1009E000212048612046FFF7EFFCE563256465643C
:1009F000A564E564256594F85C203F219140816001
:100A0000656584F8355084F83450002070BD0120AD
:100A100070BD00002DE9F84304464FF00009CDF801
:100A2000009063484FF41651A56D0068B0FBF1F7D4
:100A30002E6894F85C10082000FA01F131420FD0C2
:100A400021680A6852070BD50A6822F004020A607E
:100A500094F85C108840A860606D40F0010060650B
:100A600094F85C104FF0010808FA01F0304208D009
:100A700021684969090604D5A860606D40F002004C
:100A8000606594F85C1004208840304208D02168EA
:100A90000968890704D5A860606D40F004006065AE
:100AA00094F85C1010208840304218D02168096802
:100AB000090714D5A86020680168490304D50068B7
:100AC000000308D5A16C07E00168C90503D40168DB
:100AD00021F008010160216C09B12046884794F893
:100AE0005C1020208840304231D021680968C90656
:100AF0002DD5A86094F8350005282068016806D037
:100B0000490347D5006800031DD4616C1CE021F047
:100B1000160101602068416921F080014161206C6B
:100B200008B9A06C20B12068016821F008010160BB
:100B300094F85C103F208840A86084F8358084F8E1
:100B40003490216D1FE0E16B09B120468847606D4C
:100B500000282BD0606DC00714D0052084F8350024
:100B60002068016821F0010101600098401C00909C
:100B7000B84203D820680068C007F6D184F83580F1
:100B800084F83490E16C002910D001B02046BDE813
:100B9000F04308470168C905D5D4016821F0100168
:100BA000016084F8358084F83490CCE7BDE8F883A0
:100BB000180000202DE9F041044600F0DFF9064658
:100BC0005CB1022084F83500002584F83450206898
:100BD000016821F0010101600DE00120BDE8F08114
:100BE00000F0CCF9801B052805D920206065032082
:100BF00084F83500F2E720680068C007F0D1226869
:100C0000116820480140D4E901031843D4E90336B0
:100C10003343184363691843A3691843E3691843CE
:100C2000236A18430843616A042903D1D4E90B13EA
:100C300019430843106020684069666A20F0070184
:100C400030460E43012704280CD1A06A0643E06A0F
:100C500040B12046FFF7CCFB20B14020606584F80E
:100C60003570BAE7206846612046FFF7ADFB94F87F
:100C70005C203F2191408160656584F835700020DB
:100C8000ACE700003F8010F070B5044690F83400E7
:100C9000002501280CD0012084F8340094F8356038
:100CA0000020012E06D084F834000225284670BDAD
:100CB000022070BD022684F8356060652046FFF78B
:100CC000D0FB2068016841F001010160EEE70000FF
:100CD000F0B587B014216846FFF7BCFA20480168D8
:100CE00000293AD1012101601E480024016841F029
:100CF000010101600068022500F0010005904FF23B
:100D00003F00CDE9000502AA03260C2782E8D000A7
:100D10006946154800F030F841F23F40CDE9000542
:100D200002AA694682E8D000104800F025F84FF684
:100D30008370CDE9000502AA694682E8D0000C481C
:100D400000F01AF84CF23370CDE9000502AA6946AA
:100D500082E8D000074800F00FF807B0F0BD0000AF
:100D60000000002038380240001402400018024001
:100D700000100240000C02402DE9F84FDFF8BCA142
:100D80000022012503264FF00F090AF1040BAAF1F6
:100D9000040E00BF0B6805FA02F42340A34270D191
:100DA0000F7907F00307012F01D0022F16D18768B2
:100DB0004FEA420806FA08FC27EA0C07D1F80CC0F3
:100DC0000CFA08FC4CEA070CC0F808C04768A743B7
:100DD0000C79C4F3001494403C4344600C79E44320
:100DE000A4070AD0C4684FEA420C06FA0CF7BC43C9
:100DF0008F6807FA0CF72743C7600C7904F00304E7
:100E0000022C12D1D40800EB840CDCF820405707E8
:100E1000FF0E09FA07F824EA0804D1F8108008FA4E
:100E200007F848EA0408CCF8208004684FEA420C2E
:100E300006FA0CF7BC430F7907F0030707FA0CF723
:100E4000274307604C6814F4403F70D03C4C27683F
:100E500047F480472760246822F0030704F48044A5
:100E60000094384C07EB040CDCF8084897074FEA6D
:100E7000177809FA08F7BC43334FB84202D100276C
:100E800024E054E0314FB84201D101271EE0304F39
:100E9000B84201D1022719E02E4FB84201D10327F1
:100EA00014E02D4FB84201D104270FE02B4FB84278
:100EB00001D105270AE02A4FB84201D1062705E0F3
:100EC000284FB84201D1072700E0082707FA08F7A2
:100ED0002743CCF80878DAF800405746D1F804C028
:100EE0009C435FEACC2C00D51C433C60DBF80040FF
:100EF0005F46D1F804C09C435FEA8C2C00D51C43AC
:100F00003C60DEF800407746D1F804C09C435FEABD
:100F10008C3C00D51C433C60084F083F3C68D1F82E
:100F200004C09C435FEACC3C00D51C433C60521C8F
:100F3000102AFFF42FAFBDE8F88F0000083C0140F5
:100F400044380240003001400000024000040240EA
:100F500000080240000C0240001002400014024051
:100F600000180240001C02400069084000D0012027
:100F700070470AB1816170470904FBE70148806846
:100F8000704700000C00002002488168027811447C
:100F9000816070470C0000200B4810B5016841F4D7
:100FA00000710160016841F480610160016841F4F1
:100FB00080710160032000F071F8002000F006F855
:100FC00000F024F8002010BD003C024070B50D4D2B
:100FD00004464FF47A712878B1FBF0F00A490968A9
:100FE000B1FBF0F000F03CFB48B9102C07D2002216
:100FF0002146501E00F032F800206C6070BD0120C8
:1010000070BD00000C000020180000200B4882B0CA
:10101000016841F480410160006800F48040009064
:101020000648001F016841F080510160006800F02F
:1010300080500090052002B000F030B844380240E3
:10104000002809DB00F01F020121914040098000C7
:1010500000F1E020C0F8001170470000F0B40E4B22
:101060001B680C46C3F30223C3F10705042D00D906
:101070000425191D072901D2002300E0DB1E0126EB
:1010800006FA05F1491E214099409E40761E164001
:101090003143F0BC01F0CEBB0CED00E0064900F09E
:1010A000070208684FF6FF03184040EA0220034A8F
:1010B00010430860704700000CED00E00000FA05E6
:1010C0002DE9F0470E46050065D0DFF81481D8F809
:1010D0000000F7B200F00700B04207D288F80070B5
:1010E000D8F8000000F00700B04254D128683D4C09
:1010F000810712D5400703D5206840F4E0502060F6
:101100002878000703D5206840F4604020602068FC
:10111000A96820F0F000084320602878C0072DD08F
:10112000304968680839012812D0022813D00328F2
:1011300011D00968890700292DDA216821F00301FF
:1011400001432160FFF71AFF814641F2883A0EE021
:1011500009688903EFE709688901ECE7FFF70EFFEB
:10116000A0EB0901514502D90320BDE8F0872068B2
:10117000696800F00C00B0EB810FEFD1D8F80010D7
:10118000404601F00701B14207D90770006800F03E
:101190000700B04201D00120E7E72878400705D5D5
:1011A0002068E96820F4E0500843206028780007B0
:1011B00006D52068296920F4604040EAC10020601B
:1011C00000F038F82168084AC1F30311515CC840A7
:1011D0000649086006480068FFF7F8FE0020C4E7EB
:1011E000003C024008380240045800081800002063
:1011F000100000200448054900680968044AC1F34A
:101200008221515CC8407047180000200838024015
:10121000145800080448054900680968044AC1F3E5
:101220004231515CC8407047180000200838024025
:1012300014580008154810B5006810F00C02144846
:1012400013D04110042A0FD0082A0ED10F4C241FAE
:101250002268236802F03F025B0207D52068C0F3D2
:101260008810A0FB010106E0084610BD2168C1F30B
:101270008811A1FB00010023FEF7A2FF2168C1F342
:101280000141491C4900B0FBF1F010BD0838024093
:101290000024F4002DE9F84F04006ED02078DFF828
:1012A0004C93C007A9F104054AD009F10400016874
:1012B000C1F38101012908D00068C0F38100022830
:1012C0000AD1D9F80000400206D52868800337D536
:1012D00060680028E1D033E06068B0F5803F10D04E
:1012E000B0F5A02F286810D020F48030286028683E
:1012F00020F4802028606068A8B1FFF73FFE064612
:101300000DE0286840F48030F4E740F48020286045
:10131000F7E700BFFFF732FE801B642873D8286808
:101320008003F7D50CE0FFF729FE064605E000BF75
:10133000FFF724FE801B6428F0D828688003F7D4C8
:101340002078DFF8AC8280074FF0000A3ED5A7482E
:10135000001D016811F00C0F08D00068C0F3810077
:1013600002280BD1D9F80000400207D42868800772
:1013700016D5E068012800D112E033E1E068B8B189
:101380000120C8F80000FFF7F9FD064605E000BFA0
:10139000FFF7F4FD801B0228C0D828688007F7D526
:1013A0002868216920F0F80040EAC10028600DE0BB
:1013B000C8F800A0FFF7E2FD064604E0FFF7DEFDF7
:1013C000801B02281FD828688007F7D420780007E0
:1013D00022D5864F87486169703771B1012101605C
:1013E000FFF7CCFD064604E0FFF7C8FD801B02288E
:1013F00009D838688007F7D50EE0C0F800A0FFF7DD
:10140000BDFD064605E082E0FFF7B8FD801B02281F
:101410007DD838688007F7D42078400768D5DFF892
:10142000CCB100270BF13C0BDBF80000C0000BD463
:10143000DBF8001041F08051CBF80010DBF8000021
:10144000012700F0805000906B4E3068C00510D42A
:10145000306840F480703060FFF790FD009005E048
:10146000FFF78CFD0099401A022850D83068C0055B
:10147000F6D55E4EA0686C3601280FD0052830687E
:1014800010D020F001003060306820F0040030609F
:10149000A068B8B1FFF772FD00900FE0306840F02F
:1014A0000100F4E740F004003060F7E7FFF766FD65
:1014B0000099411A41F28830814266D8306880072D
:1014C000F4D50EE0FFF75AFD009007E0FFF756FD58
:1014D0000099411A41F28830814256D8306880071D
:1014E000F4D42FB1DBF8001021F08051CBF80010BC
:1014F000A069C8B33D49091D0968C1F381010229EA
:101500004AD00228504607D0C8F8600000E03CE00E
:10151000FFF734FD04463BE04746C8F86000FFF79C
:101520002DFD064605E000BFFFF728FD801B0228C1
:101530002BD828688001F7D4D4E907010843A16AB1
:101540002E4A490802EB0141626A41EA82110843CE
:1015500094F82C1040EA0161C9F8001001203866A7
:10156000FFF70CFD044606E03EE000BFFFF706FD76
:10157000001B022809D828688001F7D534E000BF95
:10158000FFF7FCFC001B022802D90320BDE8F88FFE
:1015900028688001F4D427E00128F7D0D9F80000AA
:1015A000E26900F4800191421CD1226A00F03F01FF
:1015B000914217D147F6C071626A0140B1EB821FB8
:1015C00010D1A26A4FF0FF3300F4403103EB520216
:1015D000B1EB024F06D194F82C1000F07060B0EB24
:1015E000016F01D00120D1E70020CFE7043802408D
:1015F00000004742800E4742007000400000FFFF9D
:1016000070B515460E46040003D094F8490010B199
:1016100007E0012070BD002084F84800204600F05B
:101620001DF804F108012068FEF750FF3146A2685A
:101630002068FEF77FFFD4E901022946236BFEF7FD
:1016400027FF2168A06851F8202042F0010241F8EC
:101650002020012084F84900002070BDFFF738BB2E
:1016600010B5401EB0F1807F01D3012010BD4FF0B6
:10167000E02460610F21601701F0DCF80020A06118
:1016800007202061002010BD7047704770B590F8AA
:101690003C20012A32D0012480F83C40022280F80C
:1016A0003D2003685A689D6822F070060A6832433C
:1016B0005A60134B02689A4214D0B2F1804F11D095
:1016C000104B9A420ED0104B9A420BD00F4B9A42BD
:1016D00008D00F4B9A4205D00E4B9A4202D00E4BC7
:1016E0009A4204D1496825F080031943916080F83B
:1016F0003D40002180F83C10084670BD022070BDBE
:10170000000001400004004000080040000C0040C0
:1017100000040140004001400018004010B50400E2
:1017200003D094F83D0010B107E0012010BD002067
:1017300084F83C00204600F01FF8022084F83D00A9
:10174000211D206800F0B0FE012084F8460084F8D6
:101750003E0084F83F0084F8400084F8410084F89B
:10176000420084F8430084F8440084F8450084F87B
:101770003D00002010BD000008B500680B498842FC
:1017800012D10B48016841F010010160006803228A
:1017900000F01000009001213620FFF75FFCBDE84B
:1017A00008403620FFF74CBC08BD00000010004088
:1017B0004038024090F83D10012901D001207047C7
:1017C000022180F83D100168CA6842F00102CA6037
:1017D00000681149884214D0B0F1804F11D00F49F0
:1017E00088420ED00E4988420BD00E49884208D05C
:1017F0000D49884205D00D49884202D00C498842E3
:1018000004D1816801F00701062903D0016841F085
:101810000101016000207047000001400004004009
:1018200000080040000C004000040140004001405E
:101830000018004070472DE9F04104460068C66872
:1018400005694FF00007A90713D5B10711D5F91E97
:10185000016101202077206880698007204602D03E
:10186000FFF7E8FF04E000F07EF8204600F07CF887
:101870002777680716D5700714D521686FF0040024
:101880000861022020772068806910F4407F20469C
:1018900002D0FFF7CFFF04E000F065F8204600F02B
:1018A00063F82777280715D5300713D521686FF01F
:1018B00008000861042020772068C069800720465E
:1018C00002D0FFF7B7FF04E000F04DF8204600F02B
:1018D0004BF82777E80616D5F00614D521686FF087
:1018E00010000861082020772068C06910F4407F4C
:1018F000204602D0FFF79EFF04E000F034F82046B7
:1019000000F032F82777E80708D0F00706D0216802
:101910006FF001000861204600F028F8280608D57D
:10192000300606D521686FF0800008612046FFF779
:10193000ABFE680608D5700606D521686FF040003A
:101940000861204600F02CF8A8060AD5B00608D594
:1019500021686FF0200008612046BDE8F041FFF7E4
:1019600094BEBDE8F08170477047000010B5006874
:101970000549884206D1054C05A0617800F036FF84
:101980000020607010BD0000001000402400002006
:101990006672616D653A25646670730D0A00000019
:1019A0007047704770470000F8B501680446086842
:1019B000CA684B6910F00F0F4FF0000559D003F0C3
:1019C000010602F49077374365D0C10705D0D105F1
:1019D00003D5616C41F001016164410705D5D90768
:1019E00003D0616C41F002016164810705D5D9071C
:1019F00003D0616C41F004016164010707D502F076
:101A00002001314303D0616C41F008016164616CD5
:101A100000293AD0800604D5900602D5204600F071
:101A2000D9FD20684069616CC0F38010090700D4BB
:101A300060B3204600F0A7FD20684069400621D52C
:101A40002068143050E8001F21F0400140E80012E7
:101A5000002AF5D1E06BA8B172490165E06BFEF791
:101A600095FF002811D0E06B016D01B0BDE8F0409A
:101A7000084783060FD593060DD52046BDE8F840EC
:101A800000F0A8BD2046FFF78DFFF8BD2046FFF708
:101A900089FF6564F8BD266B2023012E7ED1C60622
:101AA0007CD5D6067AD508684868009048694FF01A
:101AB000020640064DD5E26B106840684FF480770F
:101AC0000004000C3AD0A18D814237D9E085D0695D
:101AD000B8422DD020680C3050E8001F21F48071EE
:101AE00040E80012002AF5D12068143050E8001FA9
:101AF00021F0010140E80012002AF5D120681430DD
:101B000050E8001F21F0400140E80012002AF5D102
:101B100084F84230256320680C3050E8001F21F023
:101B2000100140E80012002AF5D1E06BFEF7E5FE57
:101B30006663A08DE18D401A81B206E0A18D8142DD
:101B4000A8D1D069B842A5D166632046FFF729FF26
:101B5000F8BDA08DE18D401A81B2E08D0028F7D04C
:101B60000029F5D020680C3050E8002F22F4907244
:101B700040E80027002FF5D12068143050E8002FEE
:101B800022F0010240E80027002FF5D184F842300E
:101B9000256320680C3050E8002F00E006E022F0BA
:101BA000100240E80023002BF3D1CDE705062BD52A
:101BB000150629D594F841002128C9D1A068B0F5AF
:101BC000805F01D12069B0B1206A411C2162216887
:101BD00000784860E08C401E0004000CE084B7D11F
:101BE0002068C16821F08001C1602068C16841F0AF
:101BF0004001C160F8BD206A0088C0F30800486059
:101C0000206A801C2062E5E74006F3D55006F1D536
:101C1000CA68204622F04002CA6084F8413000F0D1
:101C2000BFF8F8BD7925000870B5040004D094F819
:101C30004100002510B106E0012070BD84F840503D
:101C4000204600F023F8242084F841002068C16871
:101C500021F40051C160204600F01EFD206801699A
:101C600021F4904101612068416921F02A0141611C
:101C70002068C16841F40051C1606564202084F887
:101C8000410084F842006563002070BD70B586B0E5
:101C9000064614216846FEF7DDFA2449306888427A
:101CA00042D123480025016841F01001016000681D
:101CB00000F0100005901E481438016841F0010141
:101CC00001600068694600F0010005904FF4C060B3
:101CD00000900220CDE90105032003900720049025
:101CE0001448FFF749F8154C134820604FF0006086
:101CF00060604020C4E902050001C4E904058001D8
:101D0000A561C4E9075020466562FEF753FF08B19C
:101D1000FEF7BCFBB463002211462520A663FFF743
:101D20009DF92520FFF78CF906B070BD0010014029
:101D30004438024000000240B864024064020020BF
:101D400090F84230202B01D00220704721B11AB107
:101D50000023036300F026BD0120704730B4006803
:101D60000C49884214D10C4801784278491C01F092
:101D70003F01914204D08278084B04781A550170D3
:101D8000054906480122891C30BC4030FFF7D8BF06
:101D900030BC70470010014008000020DC0100202A
:101DA00000680349884202D10249012088707047C7
:101DB0000010014024000020FEE7000070B5104C28
:101DC0000E4E002520202660C4E90150E560256103
:101DD0006561A56120462562FEF77EFC08B1FEF72D
:101DE00055FBF5602068C16841F00101C1602068C1
:101DF000016841F48041016070BD000000000550A1
:101E0000540000200D4808B5016841F480010160CC
:101E10000068032200F48000009002213920FFF7BF
:101E20001DF93920FFF70CF9002211464620FFF773
:101E300015F9BDE808404620FFF702B930380240E6
:101E40002DE9F0438FB01C216846FEF703FA1C21F0
:101E500007A8FEF7FFF92D4804210024C0E9021469
:101E60001025C0E904458461C4614FF480580462C0
:101E7000C0E90948C46204634463254F84634FF09A
:101E800020464464C0E900674FF002090094CDE9A0
:101E90000149039404940594002269460694FFF7CF
:101EA000AFFB08B1FEF7F2FA18480621503007AA36
:101EB000C0E90214C0E904458461C4610462C0E958
:101EC00009484FF48041C0E90B4144638463446492
:101ED000C0E900670F20CDE900043C20CDE90204F1
:101EE0000494CDE90649CDE90849084805940A94C7
:101EF0000B940C94694650300D94FFF781FB002839
:101F000001D0FEF7C3FA0FB0BDE8F083F400002063
:101F1000040100A02DE9F04786B014216846FEF7C1
:101F200099F945480025016841F0100101600168F8
:101F300001F010010591016841F020010160016884
:101F400001F020010591016841F080010160016804
:101F500001F080010591016841F001010160016813
:101F600001F001010591016841F040010160016843
:101F700001F040010591016841F002010160016832
:101F800001F002010591016841F00801016001685A
:101F900001F008010591016841F004010160006849
:101FA000DFF898A000F004004FF4004405900022F0
:101FB00021465046FEF7DDFFDFF884800022C02175
:101FC0004046FEF7D6FFDFF87C904FF40247002230
:101FD00039464846FEF7CDFF00940124CDE901457E
:101FE000694650460395FEF7C7FEC020009001AA3F
:101FF0001120032682E8510069464046FEF7BCFEE8
:10200000CDE90074CDE9024669464846FEF7B4FEC4
:102010003002CDE90005694602945046FEF7ACFE59
:1020200002200094CDE9015069460748FEF7A4FE5E
:1020300006B0BDE8F08700003038024000040240DE
:10204000000C024000180240000002401CB50024B1
:102050000F4800940D490194016042F2CF01C0E99C
:10206000011442F20F71C16080218161FFF756FBBC
:1020700008B1FEF70BFA0094694605480194FFF792
:1020800005FB002801D0FEF701FA1CBD001000403E
:10209000940100200C4810B50A4901604FF46121F9
:1020A0004160002181600C22C160C0E9041281619D
:1020B000C161FFF7B9FD002803D0BDE81040FEF76D
:1020C000E5B910BD001001401C020020FEE7FEE74C
:1020D0007047000001484068704700003C00002045
:1020E0002DE9F0415A4C00252570656003F070FA27
:1020F0005848016841F400610160016821F4006101
:102100000160554E3560762003F058FA0320311FE8
:102110000860306840F480703060012001F038F8C9
:1021200000221146104603F005FA00286AD14FF448
:10213000D57701223946082003F0FCF9464D1035C9
:1021400038BB2868B84224D100274FF080480122CC
:102150000021372003F0EEF900286BD1012241461F
:10216000292003F0E7F9002864D128687F1CFFB21A
:10217000C82F5FD80028EADA400001D5062000E029
:102180000420207002220021104603F0D3F9C8BBBE
:1021900015E0002701220021372003F0CBF988BB8E
:1021A00001220021292003F0C5F958BB28687F1CB3
:1021B000FFB2C82F3ED80028ECDA0220E1E7012266
:1021C0000021032003F0B6F9E0B928680222000CD0
:1021D00001040D46092003F0ADF998B91E49207895
:1021E000143104280FD006280DD00868C0F30B2046
:1021F00080014030606029460122072003F09AF9EF
:1022000000B90BE016E008681349000418310968AA
:1022100040EA1140800200F58060EBE72946012288
:10222000372003F087F928B901220221062003F0A4
:1022300081F910B10120BDE8F081306820F4C05070
:1022400040F400603060012003F0B8F90020F2E7AC
:102250003C00002024380240042C01402DE9F047C6
:102260008146DDE908062D4B114600FB06F21B787E
:102270009708062B01D0A1FB0010294D4FF0FF3429
:102280002C60274814380460001D0260244A9720FF
:102290000C3A1060012E01D9122000E01120012219
:1022A00003F048F968BB1E49DFF8748000226FF024
:1022B0007F40091F08F1480815E0034609E000BF08
:1022C000D1F800C01CF02A0F01D02C6019E05B1E71
:1022D000FBD0D1F800C05FEA8C2CF1D5D8F800C053
:1022E00049F822C0521CBA42E7D30A6812F4857F2B
:1022F00001D1401EF9D22C6018B1086810F00A0F05
:1023000002D00120BDE8F087012E04D9012200216E
:102310000C2003F00FF90020F4E700003C0000203F
:10232000382C01402DE9F0478146DDE908062D4BA8
:10233000114600FB06F21B789708062B01D0A1FB83
:102340000010294D4FF0FF342C60274814380460EA
:10235000001D0260244A95200C3A1060012E01D91C
:10236000192000E01820012203F0E4F868BB1E49A0
:10237000DFF8748000226FF07F40091F08F14808E1
:1023800015E0034609E000BFD1F800C01CF01A0FA9
:1023900001D02C6019E05B1EFBD0D1F800C05FEAD1
:1023A0004C4CF1D559F82230C8F80030521CBA42D2
:1023B000E7D30A6812F4857F01D1401EF9D22C6060
:1023C00018B1086810F00A0F02D00120BDE8F087AC
:1023D000012E04D9012200210C2003F0ABF80020CB
:1023E000F4E700003C000020382C01407047FEF765
:1023F000CBBD000030B593B030216846FDF72AFF11
:1024000014210CA8FDF726FF1E480025016841F0A5
:1024100080510160006800F0805011901A480168F6
:1024200041F4804101600068022400F48040119072
:1024300001200090000401908001CDE906400820B1
:1024400008904FF4A870CDE9090407200B90684666
:10245000FEF720FF08B172B6FEE70CA90F2081E855
:1024600031004FF4A0500F904FF480501090052190
:102470000CA8FEF725FE002801D072B6FEE713B0C7
:1024800030BD000040380240007000400248016842
:1024900041F470010160704788ED00E00148FFF7EA
:1024A000CAB9000094010020F0B50268274B284DFE
:1024B000284E294F294C4FF0804C984209D0604556
:1024C00007D0A84205D0B04203D0B84201D0A04204
:1024D00004D122F0700E4A6842EA0E0298421BD0E4
:1024E000604519D0A84217D0B04215D0B84213D0D9
:1024F000A04211D01A4DA8420ED01A4DA8420BD0BE
:10250000194DA84208D0194DA84205D0184DA8422F
:1025100002D0184DA84203D122F44075CA682A435C
:102520004D6922F080022A438D68C5620D6885627C
:10253000984201D0A04201D109690163016841F0CC
:1025400004010160012141610260F0BD0000014011
:102550000004004000080040000C0040000401405E
:102560000040014000440140004801400018004084
:10257000001C00400020004010B5806B0021C18588
:10258000FFF710FA10BD01680C3151E8002F22F45A
:10259000907241E80023002BF5D10168143151E815
:1025A000002F22F0010241E80023002BF5D1016B3E
:1025B000012909D101680C3151E8002F22F01002E5
:1025C00041E80023002BF5D1202180F842100021A2
:1025D0000163704708B590F84210222901D002200B
:1025E00008BD82684FF480539A4201D1016921B13C
:1025F000816A9A421BD04AB10AE00268816A526835
:10260000C2F308020A80816A891C08E0026972B17B
:102610000268526802F07F020A70816A491C816276
:10262000C18D491E0904090CC18503D01BE0026855
:102630005268F1E70168CA6822F02002CA600168A6
:10264000CA6822F48072CA6001684A6922F00102F5
:102650004A61202180F8421000214163026B012A67
:1026600003D0FFF77BFB002008BD016301680C313C
:1026700051E8002F22F0100241E80023002BF5D191
:1026800001680A68D20602D50A6849680091818DFE
:10269000FFF787F9E7E7000070B5044600680169B5
:1026A000E26821F44051114301612169A068E269A7
:1026B00008436169114308432168CA6849F20C6301
:1026C0009A430243CA6020684169A26921F44071BB
:1026D0001143416131492068884202D03049884223
:1026E00002D1FEF797FD01E0FEF784FDE2690023C9
:1026F000192164253226B2F5004F626828D0A0FB6C
:102700000101930F9200FDF75BFD0146B0FBF5F070
:102710006FF01802504301EB800006EB0010B0FB95
:10272000F5F000F0F002B1FBF5F002EB0012B1FBA6
:10273000F5F06FF01803584301EB800006EB001032
:10274000B0FBF5F000F00F0021681044886070BD08
:10275000A0FB010192185B41FDF732FD0146B0FB81
:10276000F5F00201B1FBF5F06FF01803584301EBEF
:10277000800006EBC000B0FBF5F000F0F80002EBC3
:102780004002B1FBF5F0584301EB800006EBC000BE
:10279000B0FBF5F000F00700D6E7000000100140A4
:1027A0000014014081628285C2850021416422219A
:1027B00080F84210016921B10168CA6842F4807250
:1027C000CA6001684A6942F001024A610068C16852
:1027D00041F02001C1600020704700000148FFF770
:1027E000E3B800001C020020FEE700000FB4054B18
:1027F00010B503A9044A029800F03CF810BC5DF83B
:1028000014FB0000CD3B0008500000200FB4084B23
:1028100010B504A902AA039800F02CF8044602A9F6
:10282000002000F058FA204610BC5DF814FB0000B0
:10283000D72C00080907090E002804DB00F1E0206E
:1028400080F80014704700F00F0000F1E02080F8DD
:10285000141D704702E008C8121F08C1002AFAD1EF
:1028600070477047002001E001C1121F002AFBD110
:10287000704700002DE9FF4F8DB00F46054600263A
:1028800006E025280BD0DDE90F1290476D1C761C61
:1028900028780028F5D111B03046BDE8F08F00242B
:1028A000A246A1460122EC4900E0044315F8013F8D
:1028B000203B02FA03F00842F7D128782A2810D0EA
:1028C0006FF02F022878A0F13001092914D80AEB03
:1028D0008A0102EB410144F0020400EB010A6D1C85
:1028E000F0E701CF5FEA000A03D544F40054CAF1CF
:1028F000000A44F002046D1C28782E2817D115F820
:10290000010F44F004042A280ED06FF02F0228781B
:10291000A0F1300109290AD809EB890102EB410134
:1029200000EB01096D1CF2E757F8049B6D1C287839
:102930006C280FD006DC4C2817D068280DD06A28E8
:1029400014D104E0742810D07A280FD10DE044F49B
:1029500000140AE044F4801401E044F4401469785F
:10296000814202D104F580146D1C6D1C2A786E2AF8
:102970001FD00CDC632A31D004DC002A8BD0582A0B
:1029800011D1A3E0642A68D0692A0CD165E0732ACA
:102990002ED004DC6F2A73D0702A04D19BE0752AF4
:1029A0006FD0782A6ED01046DDE90F129047761C62
:1029B00050E1C4F30250022806D0032809D00428AD
:1029C00001CF09D0066045E101CFF117C0E90061F0
:1029D00040E101CF06803DE106703BE117F8040BB2
:1029E0008DF8000000208DF80100EB46012003E087
:1029F00057F804BB4FF0FF3061074FF0000102D4DD
:102A00000DE008F10101884649450FDA8045F8DB01
:102A10001BF808100029F4D108E008F101018846EC
:102A20008142FADB1BF808100029F6D1DDE90F23FB
:102A3000AAEB08008146214600F036F9304400EB4D
:102A4000080604E0DDE90F121BF8010B9047B8F10E
:102A50000108F7D221464846F7E00A21C4F30253A1
:102A60004FF0000B0891022B04D001CFC117032BAC
:102A700009D00AE0FF1D27F00707F7E8020108E088
:102A800032E01FE020E000B2C117042B01D140B2B8
:102A9000C117031E71F1000307DA4FF0000CD0EBF1
:102AA0000C006CEB01012D2302E0230504D52B2340
:102AB0008DF82430012303E0E30701D02023F7E75A
:102AC000984658E00A2110E010210EE010204FF047
:102AD000000B08900CE010214FF0000B44F00404B0
:102AE0004FF00809089103E008214FF0000B08910E
:102AF000C4F30253022B04D001CF0021032B06D0D4
:102B000006E0FF1D27F00707F7E8020103E080B2A7
:102B1000042B00D1C0B24FF0000823072BD5702A38
:102B200007D0DDF820C08CF0100C5CEA0B0C05D04F
:102B30000EE040238DF82430012308E050EA010321
:102B400006D030238DF824308DF8252002239846B6
:102B5000DDF820C08CF0080C5CEA0B0C0BD150EABD
:102B6000010301D1630706D530238DF824304FF0DF
:102B70000108A9F10109582A04D038A20B9208AA29
:102B80000A920BE03AA2F9E75B46089AFDF718FBB8
:102B90000B9B9B5C0A9A521E0A92137050EA010228
:102BA000F2D10A98ADEB000000F1200B600702D5CE
:102BB00024F4803401E04FF00109D94502DDA9EB8E
:102BC0000B0000E0002000EB0B0141440890AAEB51
:102BD000010AE00306D4DDE90F232146504600F048
:102BE00063F806444FF0000908E009A911F809004C
:102BF000DDE90F12904709F10109761CC145F4DBAC
:102C0000E0030CD5DDE90F232146504600F04CF8D7
:102C1000064404E0DDE90F1230209047761C089945
:102C2000481E08900029F5DC08E00A980A99007807
:102C3000491C0A91DDE90F129047761CBBF1000197
:102C4000ABF1010BF1DC21465046DDE90F2300F02A
:102C500019F806446D1C1BE6092801003031323397
:102C600034353637383961626364656600000000C8
:102C700030313233343536373839414243444546B2
:102C8000000000002DE9F041044600251E461746CD
:102C9000880404D405E039462020B0476D1C641E2A
:102CA000F9D52846BDE8F0812DE9F041044600251C
:102CB0001E469046C80301D5302700E0202788042F
:102CC00004D505E041463846B0476D1C641EF9D571
:102CD0002846BDE8F0810A68531C0B6010707047ED
:102CE00070B5044600202071401EE061204601F0CE
:102CF00085FE08B1042070BD04F22E2001F050FBC7
:102D0000054694F830004AF65526EB2803D0E9280A
:102D100001D0E8283FD1B54207D1082221A104F112
:102D20008200FDF7BAFA0028E5D004F13B0001F07B
:102D300037FB94F83D10421E10422CD14FF4007224
:102D4000904228D3904226D829B3481E014222D16E
:102D500004F13E0001F024FBE8B194F84000401E6D
:102D6000012818D804F1410001F01AFB98B104F1D0
:102D7000430001F015FB402806D204F1500001F099
:102D800014FBB0F5803F06D304F1460001F008FBC8
:102D900008B1002070BDB54201D1022070BD0320F2
:102DA00070BD000046415433322020200000000056
:102DB0004269891E921E8A4201D800207047C26A69
:102DC000408900FB012070472DE9F04106680F00A3
:102DD000804606D000F004FF022809D20120BDE899
:102DE000F081F46814B17069A04207D8012405E0AD
:102DF000411CF4D071698142F1D83C463069002809
:102E0000EDD0BC4216D17069651CA84200D80225DD
:102E10002946404600F0E4FE0128E0D0411CDED007
:102E200038B1F068022805D37169814202D904469D
:102E300000E0A5B9254670696D1CA84202D802259C
:102E4000022C0AD32946404600F0CAFE38B10128B8
:102E5000C5D0411CC3D0A542EDD10020BFE74FF043
:102E6000FF3422462946304602F0D8F930B95FB126
:102E70002A463946304602F0D1F928B1012800D05F
:102E8000012425462846AAE7F56030690028F9D0D4
:102E90007169891E8842F5D8401E3061707940F012
:102EA00001007071EEE700002DE9F04789462030FF
:102EB0000F68064620220B21FDF7C5F90025A8461C
:102EC000082024E07C5D6D1C202C13D92F2C0CD005
:102ED0005C2C0AD02E2C01D0D0451AD3BAF10B0F9E
:102EE00036D02E2C34D10FE06D1C785D2F28FBD00E
:102EF0005C28F9D07919C9F80010B8F1000F27D073
:102F00003078E52832D033E04FF008080B208246B5
:102F1000D8E7812C17D3FE2C15D8785D6D1C40287E
:102F200016D37E2803D9A0F180017E2910D8AAF1FA
:102F3000010188450CD206F8084008F1010108F1AA
:102F400002087054BEE721460FA0FDF78EF910B1BC
:102F50000620BDE8F087A4F16100192801D8203CC3
:102F6000E4B206F8084008F10108ABE7052030702C
:102F7000202C02D9785D202801D8042000E0002010
:102F8000F0720020E5E700002A2B2C3A3B3C3D3E46
:102F90005B5D7C223F7F00002DE9F8438046294895
:102FA00016460F4608990268002542F48002026026
:102FB0000068254C00F48000009024488463A063DE
:102FC0002068026822F010020260214820604FF061
:102FD0000070C4E901054013E560C4E90410001164
:102FE000C4E9063040022062042060620120C4E986
:102FF0000A0520462563FDF7DBFC2046FDF7DAFDD8
:10300000144984F83450A7B13B4642462046009606
:10301000FDF741FC2068016841F0100101600322C6
:1030200002213920FEF71AF8BDE8F8433920FEF7EF
:1030300007B801B033464246BDE8F0430248FDF709
:1030400023BE0000303802409400002054000020CD
:10305000286402402800055000B587B01421684656
:10306000FDF7F8F82648016841F0010101600068A9
:1030700000F0010005902248001F016841F0100196
:103080000160016801F010010591016841F0010142
:103090000160016801F001010591016841F004013E
:1030A0000160016801F004010591016841F002012D
:1030B00001600068694600F002000590022001905E
:1030C00001200290032003900D20049060200090C6
:1030D0000C48FDF751FE5020009069460A48FDF764
:1030E0004BFE4FF43C60009069460848FDF744FEF3
:1030F000C020009069460648FDF73EFE07B000BDBF
:103100003438024000100240000002400008024033
:103110000004024010B50021084601F065F801F0F6
:103120002FF906480068016841F001010160044878
:10313000016841F00101016010BD00009400002011
:10314000000005500748016821F001010160016895
:10315000C907FCD104480068016821F00101016041
:1031600070470000000005509400002006480168E8
:1031700041F080710160054800214160016841F023
:103180000101016070470000FCED00E0001000E06C
:10319000084A10B5536808494FF47A740968B1FBBE
:1031A000F4F1414300E000BF5068C01A8842FAD3EE
:1031B00010BD0000001000E018000020074A10B504
:1031C00053680749074C0968B1FBF4F1414300E03B
:1031D00000BF5068C01A8842FAD310BD001000E04A
:1031E0001800002040420F002DE9F0410C46054632
:1031F00002F090FAF8B921462846FFF7D9FD0646B5
:10320000E86105F130004FF400710446FDF722F843
:10321000A0460127002400E03C446889A04207D969
:10322000321968783B46414600F050F90028F3D047
:103230006889A04202D00120BDE8F0810020FBE7B0
:103240002DE9F047066907682036894604464FF0A5
:103250000008B6F5001F35D2A06910B1F10503D002
:103260003DE00420BDE8F087401CA061616929B100
:103270007889401E10EA562F05D030E03889B0EB2F
:10328000561F1FD92BE0204600F0AAFC0546012856
:103290001DD9681C14D07869A8421AD8B9F1000F5A
:1032A00010D020466169FFF78FFD05000DD0012D7C
:1032B0000DD0681C04D029463846FFF795FF40B171
:1032C0000120CFE7C4F81880CBE70720CAE7022027
:1032D000C8E7294638466561FFF76AFDA061C6F375
:1032E0000800384430302661E0610020BAE770B54C
:1032F00004460E460420256821E0284601F07EFBA6
:1033000010BBE2691178B1B1D27AE52902F03F022F
:10331000A2710AD02E2908D00F2A06D022F020014F
:1033200008290AD00021B14210D000212046FFF721
:1033300087FF20B108E0042006E00121F3E7A1693E
:103340000029DAD1002801D00021A16170BD70B53B
:1033500004460021066800F030F80DE03046A1690F
:1033600001F04CFB50B9E0690078E52809D040B184
:1033700001212046FFF764FF0028EFD0042807D082
:1033800007E03046A16901F039FB050003D012E0E7
:10339000072005460FE02021E069FCF75BFFE169AB
:1033A000206A0860606A4860208D088194F82A00CD
:1033B000887201203071284670BD2DE9F041076800
:1033C0000E460546B1F5001F36D2F00634D12E6107
:1033D000AC6824B93878032805D3BC6A1CB1788955
:1033E0004FEA402812E03889B0EB561F24D9B86A5A
:1033F00012E0284600F0F4FB0446401C1AD0022CD0
:103400001AD37869A04217D9A6EB0806464521468B
:10341000EFD23846FFF7CCFCC5E9054060B100EBC0
:103420005620A861C6F3080038443030E861002017
:10343000BDE8F0810120FBE70220F9E710B508B1F3
:10344000012010BDFEF74CFE024900B101200870BA
:10345000087810BD4C00002010B5144630B989B171
:10346000012905D0022907D0032909D0042010BD65
:10347000FEF730FE206005E04FF40070108001E0A0
:1034800001201060002010BD1CB530B92BB10A48D6
:103490000078C00703D003201CBD04201CBD4FF4DE
:1034A0000070CDE9000300230846FEF7D7FE002890
:1034B000F4D001201CBD00004C00002008B1012008
:1034C00070470148007870474C0000201CB530B9A7
:1034D0002BB10A480078C00703D003201CBD04208C
:1034E0001CBD4FF40070CDE9000300230846FEF731
:1034F00019FF0028F4D001201CBD00004C00002062
:1035000038B5044600F0FCF9002807D1694620468A
:1035100002F05AF9002801D10021216038BD38B5E8
:103520000446694602F050F9002801D100212160CB
:1035300038BD00002DE9F14193B00222694613A87D
:1035400001F02EF9040064D10098029002A81399AA
:1035500000F0DCFA040002D0042C09D059E09DF8F8
:10356000330010F0A00F01D0062452E0082450E0F0
:1035700000980F9000210FA8FFF726FC32490500A4
:103580004FF0000404D0012D06D0681C06D000E0E6
:103590000724884624B137E0022435E0012433E0D3
:1035A00029460098FFF720FE04002DD10098202224
:1035B0000B213030FCF747FE00982E24102680F8AF
:1035C000304080F83B604146463002F043F80098B6
:1035D0002A4600F1300102F045F80099202201F15D
:1035E00050003031FCF71DFE009800F1500180F8CA
:1035F0005140049A02F036F800980127077102A89A
:10360000FFF7A5FE040008D0002229460FA801F00C
:103610007AFE14B02046BDE8F081099841460E308C
:1036200002F018F809984146163002F013F82A46BD
:103630000999009802F016F80998C6720098077167
:1036400002F024F80446E4E70000215A17B581B0DF
:10365000144602980090684600F058FB002802DAF1
:103660000B2004B010BD0B4A002352F8201011B1FA
:1036700042F820300B70019919B148700B7042F874
:1036800020102CB1002201A902A801F089F8E8E776
:103690000020E6E7480000202DE9F7438CB0050044
:1036A0000BD002F03F06324669460DA801F078F8CB
:1036B00004004FF0000804D0BFE009200FB0BDE8BF
:1036C000F083009828600098019001A80D9900F0FF
:1036D0001DFA040004D19DF82F00000600D5062431
:1036E00016F01C0F4AD04CB1042C03D101A8FFF7EF
:1036F0002EFE044646F008064CB19EE0700701D548
:1037000008249AE09DF80A0010F0110F41D130070B
:1037100045D54D4F089839460E3001F09BFF08986B
:103720003946163001F096FF0899009800F048FEDF
:10373000089907462020C87200220899009801F0D5
:1037400091FF089800211C3001F084FF00990120AE
:10375000087117B3D1F81C900022394601A801F076
:10376000D2FD040069D14946009801F047F90400F0
:103770000098A7F10107C7600DD05EE0C4BB9DF8BB
:103780000A00C10601D5042457E0B10703D5C007DC
:1037900001D0072451E0300701D546F040060098DB
:1037A000C169296208996962089900F009FEA86058
:1037B00008981C3000F0F9FDE86000984FF40071A3
:1037C000C088A8802E7485F81180C5F81C8005F18A
:1037D00028008146C5F81480FCF73CFDB0062ED5C4
:1037E000EE6866B36E610098A968408947020FE0F1
:1037F00023E0284600F0F4F90146012800D802240D
:10380000481C02D0F61B1CB104E00124F61B01E0A9
:10381000BE42EED8A96184B9F00510D00098FFF738
:10382000C7FA70B100EB5622EA61009801234946BD
:103830004078FFF729FE10B10124C5F8008020462A
:103840003CE70224F9E700000000215A13B582B0DA
:10385000040006D00022694603A800F0A1FF18B1B9
:1038600020E0092004B010BD009820602046039994
:1038700000F04CF990B994F82B00000607D4A07919
:10388000C00612D5E169009800F09AFDA06000988A
:103890000021C088A0802046FFF78FFD042804D0B7
:1038A0000028DFD000212160DCE70520FAE7F8B529
:1038B0000C460646694601F087FF002528B1002C1A
:1038C00002D0002800D06572F8BDA4B16572002155
:1038D0003046FFF70CFD042801D00028F3D1214623
:1038E000304600F0DCF900213046FFF7A9FC04283F
:1038F000E7D10020F8BD00213046FFF75EFDF8BD9E
:1039000038B50446694601F05FFF00280ED1217CDE
:103910004A060BD508060ED50098E26901234078C7
:1039200004F12801FFF7D2FD08B1012038BD207C49
:1039300000F07F002074216A009801F05FF80028F1
:10394000F4D1656A2946E87A40F02000E872A2685E
:10395000206801F087FE05F11C00E16801F07AFEA5
:10396000094905F1160001F075FE002105F112006C
:1039700001F06CFE00980121017101F087FE217CAD
:1039800001F0BF01217438BD0000215A2DE9FE4F1E
:1039900004460020884618609946154602A920462C
:1039A00001F012FF002806D1607C002803D1207CA2
:1039B000800702D40720BDE8FE8F60690127421905
:1039C0004FF0020A04F1280B824200D2C54394E072
:1039D0006069C1056ED102994989491E11EA5026D4
:1039E00012D108B1A16902E0A06828B900212046DF
:1039F000FFF7EAF900287DD001282DD0411C54D0D2
:103A0000A061A16801B9A060207C00060BD50298D6
:103A1000E269012340785946FFF758FDA0BB207C9E
:103A200000F07F002074A1690298FFF7C1F998B1F6
:103A300030440190680A009027D0321802984189DA
:103A40008A4201D9891B0091DDE900324078414664
:103A5000FFF73CFDC0B903E084F811A00220AAE7FB
:103A6000E1690198081A009988420AD208EB4021BE
:103A70004FF400725846FCF7D4FB207C00F07F0026
:103A800020740098460227E00FE0E1690198814226
:103A90000ED0E168606988420AD202980123594633
:103AA0004078019AFFF7F0FC10B16774012082E7BB
:103AB0000198E061A08AC0F30800C0F50076AE422C
:103AC00000D92E462044324641462830FCF7A9FB57
:103AD000207C40F080002074D9F80000AD1B8119D3
:103AE000C9F800106069B04430446061E168884200
:103AF00002D800E004E00846E060002D7FF468AFE3
:103B0000207C40F040002074002054E72DE9F34170
:103B100005460768019801E0401C019001782F29B3
:103B2000FAD05C29F8D00020A860019800782028FD
:103B300008D2802085F82B0000212846FFF73DFCA5
:103B4000BDE8FC8101A92846FFF7AEF90028F7D1AE
:103B500095F82B6000212846D5F80080FFF72DFC52
:103B6000D8B94046A96900F049FF040015D1E869B9
:103B70000178C1B1C17A01F03F02AA71C17A090787
:103B800005D40B2205F12001FCF787FB68B1002169
:103B90002846FFF755FB0400E3D00428D0D1710775
:103BA000CED40520CCE70420F9E720467107C7D41E
:103BB000A879C006F5D5288AC0F30800C11938468F
:103BC000303100F0FDFBA860BCE7000003490A6843
:103BD0005206FCD5C2B24A60704700000010014096
:103BE0002DE9F04104680D4602290BD36069A84213
:103BF00008D920784FF0FF36012807D002282BD0B3
:103C0000032839D001263046BDE8F081606A05EB13
:103C1000550700EB5721204600F0F0FE0028F2D1B6
:103C2000C7F3080020447F1C90F83080606A00EBE6
:103C30005721204600F0E2FE0028E4D1C7F3080037
:103C4000204490F8301048EA0120E90701D0060925
:103C5000D9E7C0F30B06D6E7606A00EB15212046D2
:103C600000F0CCFE0028CED1E8B204EB40003030AA
:103C700000F096FB0646C6E7606A00EBD5112046C9
:103C800000F0BCFE0028BED140F2FF1000EA850023
:103C90002044303000F089FB20F07046B3E72DE976
:103CA000F041002305464B7280690C4600282AD05B
:103CB000002002462E26E969095C401C20290AD012
:103CC000052900D1E521092802D1A718521C7E72CE
:103CD000A718521C79720B28EDD3A0184372E8691B
:103CE000C07A00F03F002072E8691C3000F05DFBF4
:103CF0002060E869163000F053FBE080E869183076
:103D000000F04EFBA080BDE8F081000010B5016816
:103D100003460A004FF0FF340FD000BF11F8010B2B
:103D200021280ED33A28F9D110783038092804D840
:103D3000921C8A4201D1012801DB204610BD196086
:103D400010BD002010BD00002DE9F0470024264DD5
:103D5000DFF898A0264E01274FF400784FF48079C1
:103D600008B12F7001E0287878B141463046FDF760
:103D7000FBF888B149463046FDF7F6F860B10121FD
:103D80005046FDF7F1F8012806D041463046FDF7D0
:103D9000EBF8012819D024E00A20FFF7F9F90020F8
:103DA000287041463046FDF7DFF800B90124494646
:103DB0003046FDF7D9F800B9022401215046FDF73D
:103DC000D3F801280DD104240BE049463046FDF715
:103DD000CBF8012805D101215046FDF7C5F800B9FF
:103DE0002F702046BDE8F087200000200000024030
:103DF0000004024070B50A490646002408884D8830
:103E000021464543204600F0EFF900F0B9FA4FF0A3
:103E1000D84002E0A0F88060641CAC42FAD370BDC8
:103E2000C402002070B40A49F0262C222A2388718B
:103E30004FF4A0752B2440B10D804E800A814B8138
:103E40008C8170BC002000F06FB90E804D80F5E7CA
:103E5000C402002010B5144600F0C6F900F090FA34
:103E60004FF0D840A0F8804010BD10B5CF2000F032
:103E70007AFA002000F06BFAC12000F068FA3020D6
:103E800000F065FAED2000F06EFA642000F05FFAB1
:103E9000032000F05CFA122000F059FA812000F0B3
:103EA00056FAE82000F05FFA852000F050FA102062
:103EB00000F04DFA7A2000F04AFACB2000F053FAD5
:103EC000392000F044FA2C2000F041FA002000F0E4
:103ED0003EFA342000F03BFA022000F038FAF720D6
:103EE00000F041FA202000F032FAEA2000F03BFA1C
:103EF000002000F02CFA002000F029FAC02000F089
:103F000032FA1B2000F023FAC12000F02CFA012025
:103F100000F01DFAC52000F026FA302000F017FA54
:103F2000302000F014FAC72000F01DFAB72000F08E
:103F30000EFA362000F017FA482000F008FA3A206E
:103F400000F011FA552000F002FAB12000F00BFA4F
:103F5000002000F0FCF91A2000F0F9F9B62000F07A
:103F600002FA0A2000F0F3F9A22000F0F0F9F220A2
:103F700000F0F9F9002000F0EAF9262000F0F3F94A
:103F8000012000F0E4F9E02000F0EDF90F2000F04E
:103F9000DEF92A2000F0DBF9282000F0D8F908200B
:103FA00000F0D5F90E2000F0D2F9082000F0CFF98A
:103FB000542000F0CCF9A92000F0C9F9432000F00A
:103FC000C6F90A2000F0C3F90F2000F0C0F9002064
:103FD00000F0BDF9002000F0BAF9002000F0B7F9B8
:103FE000002000F0B4F9E12000F0BDF9002000F05D
:103FF000AEF9152000F0ABF9172000F0A8F9072062
:1040000000F0A5F9112000F0A2F9062000F09FF9B8
:104010002B2000F09CF9562000F099F93C2000F08C
:1040200096F9052000F093F9102000F090F90F2088
:1040300000F08DF93F2000F08AF93F2000F087F969
:104040000F2000F084F92B2000F08DF9002000F003
:104050007EF9002000F07BF9012000F078F93F2084
:1040600000F075F92A2000F07EF9002000F06FF9C9
:10407000002000F06CF9002000F069F9EF2000F05A
:1040800066F9112000F06FF97820FFF781F8BDE89C
:104090001040292000F067B970B5D32000F063F913
:1040A00000F034F8144CA08000F030F8A08000F04C
:1040B0002DF84FF6FF7505EA0020A08000F026F8E5
:1040C000A1880843A08001460CA0FEF78FFBA088C2
:1040D000A0F51341413901D1FFF7C7FE0020FFF7DA
:1040E000A1FE0122D1030848FCF743FF2846BDE8A2
:1040F0007040FFF77FBE0000C40200204C43442004
:1041000049443A25780D0A000004024008B502200F
:10411000401EFDD24FF0D840B0F88000ADF800004E
:10412000BDF8000008BD000010B50023082812D219
:10413000DFE800F0110406080A0C0E1080230AE0E4
:10414000402308E0C02306E0202304E0602302E0CF
:10415000A02300E0E023234C3620A188A1F51342E0
:10416000413A01D143F00803194600F013F9A08841
:10417000A0F5C85163390AD098062088618802D515
:10418000884202D303E0884201D92180608060899F
:1041900000F0E9F8002000F0DAF8002000F0D7F88D
:1041A0002088401EC0F30F2000F0D1F82078401E78
:1041B000C0B200F0CCF8A08900F0D5F8002000F0E3
:1041C000C6F8002000F0C3F86088401EC0F30F203E
:1041D00000F0BDF8A078BDE81040401EC0B200F06D
:1041E000B6B80000C402002030B50B4D04460A46A4
:1041F000688900F0B8F8200A00F0A9F8E0B200F0F1
:10420000A6F8A88900F0AFF8100A00F0A0F8BDE801
:104210003040D0B200F09BB8C40200202DE9FF4F1F
:104220001D460C468B46580700D0012000EBD500F8
:10423000690810FB01F0203A00F0FF0AD0B20C2D03
:104240000AD0102D0CD0182D0ED0202D46D1244987
:1042500001EB801600203EE000EB4001214806E023
:10426000214901EB0016F5E700EBC0011F4800EB08
:104270008106EFE716F808704FF00009380601D5FF
:104280000E9A03E00D9828B9194802682146009853
:10429000FFF7E0FD7806070E1648641CA4B24088BC
:1042A000A0421BD9A4EB0B00A8420AD100985C469F
:1042B000401C80B200900F480188009881420DD9BF
:1042C00006E009F1010000F0FF09B9F1080FD5D3AC
:1042D00008F10100C0B280465045CBD3BDE8FF8F46
:1042E00078710008B85900082C5E00081C640008AA
:1042F0001C000020C40200202DE9FC4F044600F001
:10430000FF0910190D46DDE90BB61FFA80F85819A0
:1043100087B24FF0000A13E0444503D305EB0B00CE
:104320004C4685B2BD4210D20D985B46CDE900A047
:1043300029462046FFF772FF04EB5B0084B2761C2F
:104340003278A2F120005E28E6D9BDE8FC8F01B5E5
:10435000BDF80000ADF80000BDF800004FF0D841F6
:10436000A1F8800008BD01B5BDF80000ADF800005F
:10437000BDF800004FF0D841A1F87E0008BD000054
:1043800003484FF0D8410089A1F87E007047000033
:10439000C40200204FF0D84222F87E0F51807047AF
:1043A0004178007840EA01207047C178827842EA7B
:1043B00001214278007842EA012140EA0120704759
:1043C00070B506460D4601F11A00FFF7E9FF0446F5
:1043D0003078032805D105F11400FFF7E1FF44EA26
:1043E0000044204670BD00008CB0FCF7D5FDFEF700
:1043F00001F8FDF78FFDFDF705FDFDF7DFFCFDF78B
:104400001FFDFDF747FEFDF721FE9648FDF7D2F9A7
:10441000FEF7ACFEFFF740FE01F0CCF910254FF49B
:10442000784491A00095CDE9010401262B46C822CD
:1044300032211E20FFF760FF8DA00095CDE9010419
:104440001023C82246211E20FFF756FF8CA000959E
:10445000CDE901041023C8225A211E20FFF74CFF8A
:104460000CE08BA00095CDE901041023F0228221FD
:104470001E20FFF741FFC820FEF78AFE00F01CFB5C
:104480000028EED186A00095CDE901041023C822B2
:1044900082211E20FFF730FF00F0B6FD002852D029
:1044A000102382A0F0220095CDE9010496211E2060
:1044B000FFF722FF80A00095CDE901041023F02230
:1044C000AA211E20FFF718FF7DA00095CDE9010469
:1044D0001023F022BE211E20FFF70EFF7DA00095C5
:1044E000CDE901041023F022D2211E20FFF704FFA2
:1044F00000F064FD7A4F4FF496694FF4487810212C
:1045000003A801F02BF998B176A103A8FBF7B7FE39
:10451000F0B176A103A8FBF7B2FE10B374A103A813
:10452000FBF7ADFE00282CD003A973A0FEF75EF9BF
:104530000020FFF709FC40B2012826D0022840D015
:10454000042851D07BE0102370A0C8220095ABE76F
:1045500070A0FEF74BF900F0D5FB07E000F0B2FDCC
:1045600006E071A0FEF742F900F010FC0028F5D03B
:1045700000F066FC014671A0FEF738F900F01EFD60
:10458000D6E772A0FEF732F9D2E7FEF7DBFD76A0A0
:104590000095CDE901041023F022BE211E20FFF773
:1045A000ABFE00F0F3FB1AE000F04AFC0095CDE909
:1045B00001041023F022AA211E20FFF79DFE484689
:1045C00039E0FEF7BFFD6DA00095CDE90104102391
:1045D000F022BE211E20FFF78FFE00F093FB002883
:1045E000E2D100F06FFDDFE7FEF7ACFD5EB33A8885
:1045F0007B88C2F54870C3F5167101EBD17100EBF1
:10460000D0700026C1F34F01C0F34F0000F00FFA45
:104610007988388800F0EAFA5DA107A8FEF7F6F875
:1046200007A80095CDE901041023F022AA211E203D
:10463000FFF762FE4046FEF7ABFD00F0BFFC0A202C
:10464000FEF7A6FD5BE7002101264FF416734246F4
:10465000084600F0ECF97988388800F0C7FA16A10E
:10466000DBE700009401002053544D33320000007A
:104670004F56323634302043414D45524100000000
:1046800041544F4D40414C49454E54454B0000006C
:104690004F5632363430204552524F5200000000FF
:1046A0004F5632363430204F4B00000053442045E3
:1046B00052524F52000000005363616C65000000CD
:1046C0004B4559303A424D50204B4559313A4A50AA
:1046D00047000000574B5F55503A5A4F4F4D00006E
:1046E000C40200204A50454700000000424D5000DF
:1046F00048454C5000000000756E6B6E6F776E2061
:10470000636D643A2025730D0A0000005344204F66
:104710004B000000434D443A204A50454720636116
:1047200070747572650D0A00434D443A20424D5035
:1047300020636170747572650D0A0000524553550F
:104740004C543A2025730D0A00000000434D445399
:104750003A204A504547202F20424D50202F2048D4
:10476000454C500D0A000000424D502063617074AA
:104770007572696E672E2E2E000000004A50454764
:1047800020636170747572696E672E2E2E000000B2
:1047900046756C6C2053697A6520313A310000000F
:1047A0002DE9FF41002617460D460E60FFF7AEFAD1
:1047B000002803DA0B2004B0BDE8F0818A4951F8E3
:1047C000204094B12C60207807F0FE0520B160787D
:1047D000FEF774FEC1070AD02670B0466078FEF777
:1047E0002DFEC10708D00320E5E70C20E3E70DB15B
:1047F000400704D40020DEE71DB1400701D50A20A0
:10480000D9E700212046FEF76BFA02281BD10025CC
:104810004FEA0D0604EB051000F5FB70FFF7C5FD30
:1048200046F825006D1C042DF4D3002556F82510FC
:1048300029B12046FEF754FA022801D203E00320F2
:104840006D1C042DF2D304280AD002287AD204F178
:104850003B00E769FFF7A4FDB0F5007F72D101E0EE
:104860000120A8E704F14600FFF79AFD18B904F10A
:104870005400FFF79AFDB0F5001F63D2A06194F8D1
:104880004060E670012E01D0022E5BD1464394F8C1
:104890003D006081C0B3411E084253D104F1410084
:1048A000FFF77EFD208100074CD104F14300FFF7A4
:1048B00077FD050004D104F15000FFF776FD0546B1
:1048C00004F13E00FFF76CFD01003BD023898819FD
:1048D00000EB1312954235D3A81A6589B0FBF5F0A9
:1048E00090B1DFF808C10025604500D803254FF6D8
:1048F000F57C604500D8022540F6F57C604504D87B
:10490000012520281ED903E01CE020281AD9CDB1AA
:10491000801C3A44E26239446061C4E90871032DA5
:1049200012D07BB13144A162022D1ED000F00101F2
:1049300000EB400001EB5000A16900F2FF10B1EB69
:10494000502F14D20D2036E704F15A00FFF728FD4E
:104950000028F7D120890028F4D104F15C00FFF78A
:1049600024FDA06260698000E6E74000E4E74FF0C4
:10497000FF302061E06080206071032D2BD104F1B5
:104980006000FFF70DFD012825D1791C204600F0BD
:1049900035F800BB84F8058004F13000FFF705FD11
:1049A0001349884217D104F50570FFF7FEFC114941
:1049B000884210D104F50B70FFF7F7FC0E498842CE
:1049C00009D104F50670FFF7F0FC206104F50770CB
:1049D000FFF7EBFCE06004492570091F0888401CC4
:1049E0000880E08006E7000048000020F5FFFF0F88
:1049F0005252614172724161000055AA70B504467D
:104A0000C0690D460026A8420FD0204600F082FE65
:104A100006000AD1607801232A4604F13001FEF72E
:104A200033FD08B1751E0126E561304670BD2DE9E4
:104A3000F04107460E46900702D00120BDE8F08104
:104A4000980701D00220F9E794089D080021FF2073
:104A500000F032F90421E02000F02EF9E1B25120FB
:104A600000F02AF9E9B2522000F026F9F9B25320F9
:104A700000F022F9F1B2542000F01EF928468025FA
:104A800005EA5001702000EA16100843082101EAE7
:104A900054110143C7F302200143552000F00CF9E3
:104AA00005EA9401572000F007F90021E02000F00A
:104AB00003F90020C2E7000070B5304C00224FF42B
:104AC00000712046FCF755FA0A20FEF761FB4FF40F
:104AD0000045002229462046FCF74BFA1420FEF739
:104AE00057FB012229462046FCF743FA0A20FEF72D
:104AF0004FFB00F043FC0520FEF74AFB0121FF209D
:104B000000F0DAF88021122000F0D6F83220FEF70B
:104B10003FFB1C2000F094F84FF6FF7404EA0025D8
:104B20001D2000F08DF82843A0F5FE41A23902D0E7
:104B3000014613A00EE00A2000F082F804EA0024E7
:104B40000B2000F07DF82043A0F51851423905D024
:104B5000014610A0FDF74AFE012070BD124D002451
:104B600005EB4400417815F8140000F0A5F8641C2A
:104B7000A4B2B12CF4D3002070BD00000018024094
:104B80004552524F523A204D4944203D2025640D54
:104B90000A0000004552524F523A20504944203DED
:104BA0002025640D0A0000001C58000870B50E4D49
:104BB000002400BF05EB4400417815F8140000F014
:104BC0007BF8641CA4B2082CF4D3074D00241035E4
:104BD00005EB4400417815F8140000F06DF8641CF2
:104BE000A4B2072CF4D370BD7E59000870B58207BB
:104BF00001D0012070BD8A0701D0022070BD840859
:104C00008D080021FF2000F057F80421E02000F07B
:104C100053F8E1B25A2000F04FF8E9B25B2000F0FF
:104C20004BF80421C4F3012001EA951101435C20F3
:104C300000F042F80021E02000F03EF8002070BDB6
:104C400010B5044600F0F6FB602000F02FFC642055
:104C5000FEF7B4FAE0B200F029FC6420FEF7AEFAE9
:104C600000F008FC6420FEF7A9FA00F0E3FB6120E5
:104C700000F01CFC6420FEF7A1FA00F0B5FB04462E
:104C80006420FEF79BFA00F089FB00F0F3FB20465E
:104C900010BD000070B5074D002400BF05EB4400B7
:104CA000417815F8140000F007F8641CA4B20E2C2B
:104CB000F4D370BD9C59000870B50E46054600241B
:104CC00000F0B8FB6420FEF779FA602000F0EEFBFC
:104CD00000B101246420FEF771FAE8B200F0E6FBAF
:104CE00000B101246420FEF769FA304600F0DEFBD3
:104CF00000B101246420FEF761FA00F0BBFB2046FE
:104D000070BD00002DE9F04100252F46FFF74EFF52
:104D10004FF4F0714FF42070FFF768FF00244FF458
:104D200000384FF0D0464146304600F035FA0028B2
:104D30001FD1641CE4B2032CF5D3002411481BE0FE
:104D4000315DFF2917D131194978D82902D0D929E5
:104D500003D010E0254601270DE067B1601B801CE1
:104D60000ED00949022205F1D0450A70C1E901506F
:104D70000020BDE8F081641CC168491E8C42DFD36D
:104D80000220F6E724000020D402002070B5FFF7CF
:104D900081FFF0214FF4A070FFF728FF094E4FF478
:104DA0001631304600F0F8F9050008D1064C012014
:104DB000314620700548606000F084F8A060284605
:104DC00070BD000000000268D40200200058046892
:104DD00030B51849C87800282AD0C8684A6900F553
:104DE0008050904224D8D1E9032002441248006840
:104DF000124C00034FF480634FF0000009D500BF50
:104E000054F8205042F82050401C80B29842F7D30A
:104E10000AE004EB800505F580552D6842F8205026
:104E2000401C80B29842F4D3C86800F58050C86036
:104E300030BD00002400002028640240100500203E
:104E4000062810D2DFE800F0030507090B0D07A0C4
:104E5000704707A0704709A070470CA070470FA0CB
:104E6000704712A0704715A0704700004F4B00001C
:104E70004341502054494D454F5554004E4F204A10
:104E80005045472044415441000000005344204D08
:104E90004F554E54204641494C0000005344204F8A
:104EA00050454E204641494C0000000053442057D5
:104EB00052495445204641494C000000554E4B4E46
:104EC0004F574E00F0B5422202704D2242703623F9
:104ED00083708426C670032404710022427182719B
:104EE000C271027242728372C272027342732823C9
:104EF0008373C27302744274402383740127C7749E
:104F00000275427510238375FF23C37503764376BC
:104F10008776C2761823037742778277C27780F844
:104F2000202080F8212080F8222080F8236080F85B
:104F3000244080F8252080F8262080F8272080F85B
:104F4000282080F8292080F82A2080F82B2080F85B
:104F50002C2080F82D2080F82E2080F82F2080F83B
:104F6000302080F8312080F8322080F8332080F81B
:104F7000342080F8352036224FF496355FF0000358
:104F800001EB43045B1C248864BAE70AC4F34516AA
:104F900004F01F0CFC0044EA9704B70047EA161619
:104FA0004FEACC0747EA9C078754521C8654521C90
:104FB0008454521CAB42E3D31046F0BD08B5002127
:104FC0000846FFF711F9FFF7DBF9FEF745F8FFF7A1
:104FD00061FE0020014600904FF400530122084872
:104FE000FDF7DAFF074841880088FFF7FFFDFEF76D
:104FF00091F8FEF7A7F8FEF78DF8002008BD000035
:105000008000006CC4020020F0B591B0002400F0D4
:10501000DFFA274E307838B9012226A12648FEF75C
:1050200015FB38B90120307024A0FEF783FA20B1B7
:10503000082802D0032011B0F0BD20A16846FEF779
:1050400005FC08B330E0492822D19DF836004D28F0
:105050001ED19DF8370047281AD19DF838005F28E7
:1050600016D12946002006E000EB800007EB400047
:10507000104480B2491C0A78A2F13003092BF3D9FD
:10508000A04205D9044603E00DF139056FF02F0762
:105090000BA96846FEF70BFC18B99DF835000028EF
:1050A000D1D16846FEF73BFA641CF4800020C2E7C9
:1050B00024000020303A0000E0020020303A50483E
:1050C0004F544F0030B5ADF5117D0020909000F0A9
:1050D0007FFA1D4C207858B901221CA11C48FEF70C
:1050E000B5FA18B103200DF5117D30BD01202070F7
:1050F000174DE2880C3D287802280BD015A18AA80C
:10510000FDF784FB0A228AA96846FEF7C5FA18B1A2
:105110000420E8E715A1F2E7D5E9011290AB684653
:10512000FEF734FC05466846FEF7EAF90DB10520A6
:10513000D9E7E0888AA9401CE08012A0909AFDF788
:1051400055FB0020CFE7000024000020303A00008B
:10515000E0020020303A50484F544F2F494D475FEE
:10516000253034642E424D5000000000303A504843
:105170004F544F2F494D475F253034642E4A5047D6
:10518000000000007361766564202573206C656EF5
:105190003D25640D0A000000F8B50F4605460026BF
:1051A000FDF7D0FF194CC4E904570025E5602571CF
:1051B0000127E7701648BA02A06016491301A1F54D
:1051C00080500092FDF7E8FE134801684F610068C7
:1051D000C16841F00101C160FDF79CFF4FF4FA671F
:1051E0000BE00120FDF7D4FF761CBE4205D9FDF788
:1051F000A9FFE5700120A560F8BD20790028F0D056
:10520000FDF7A0FFA560E5700020F8BD2400002098
:10521000D14D000810150020540000202DE9F04762
:10522000022617460D460446022969D36069A84242
:1052300066D920784FF00109012804D0022836D021
:1052400003285DD143E0616A05EB550801EB582165
:105250002046FFF7D3FB060052D1C8F308002044D4
:10526000303008F10108E90704D00178FAB262F39E
:105270001F1100E03946017084F80490616A2046ED
:1052800001EB5821FFF7BAFB060039D1C8F308003B
:1052900020443030E90702D0C7F3071105E0017858
:1052A000C7F3032201F0F0011143017026E0606AA8
:1052B00000EB15212046FFF7A1FB060020D1E8B244
:1052C00004EB4000B9B2303000F0C0F916E0606A7B
:1052D00000EBD5112046FFF791FB060010D140F2FC
:1052E000FF1000EA8500204430300546FFF75DF8E6
:1052F00067F31B000146284600F0ACF984F80490DF
:105300003046BDE8F0872DE9F041056813460E46AA
:10531000074602292DD36869B0422AD93BB14FF024
:10532000FF3219462846FFF779FF00281FD1314682
:105330003846FEF755FC040018D0012C19D0601C2B
:1053400019D0002231462846FFF768FF00280ED109
:10535000D5E90410821E914205D2491C2961697960
:1053600041F0010169712646B042E0D80020BDE855
:10537000F0810220FBE70120F9E7000010B5064CA0
:10538000012240212046FBF7F4FD20460122BDE822
:1053900010408021FBF7EDBD000C024010B532201B
:1053A000FDF70CFF0F4C012280212046FBF7E1FDA9
:1053B000012240212046FBF7DCFD3220FDF7FEFEF6
:1053C000002240212046FBF7D4FD3220FDF7F6FEF7
:1053D000002280212046FBF7CCFDBDE810403220A2
:1053E000FDF7ECBE000C024070B50024104E2546BF
:1053F0006006040E012240213046FBF7BAFD8021F1
:105400003046FBF7B1FD08B1641CE4B23220FDF771
:10541000D5FE002240213046FBF7ABFD3220FDF7E0
:10542000CDFE6D1CEDB2082DE2D3204670BD00000C
:10543000000C024010B50E4C012240212046FBF723
:1054400098FD012280212046FBF793FD3220FDF7D5
:10545000B5FE002280212046FBF78BFD3220FDF7B0
:10546000ADFE20460022BDE810404021FBF781BD83
:10547000000C024010B50C4C012240212046FBF7E5
:1054800078FD002280212046FBF773FD3220FDF7D6
:1054900095FE012280212046FBF76BFDBDE8104000
:1054A0003220FDF78BBE0000000C024070B5204E8C
:1054B00005460024280601D5012200E000228021B3
:1054C0003046FBF756FD3220FDF778FE01224021E1
:1054D0003046FBF74EFD3220FDF770FE00224021E2
:1054E0003046FBF746FD6806641C050EE4B2082C46
:1054F000E0D3012280213046FBF73BFD3220FDF74F
:105500005DFE012240213046FBF733FD3220FDF7DE
:1055100055FE80213046FBF727FD08B1012400E04D
:105520000024002240213046FBF723FD204670BDB9
:10553000000C0240F0B56FF07F431F4D1C462E68F3
:10554000360502D5641EFAD200E084B11A4F4FF03E
:10555000FF363F1D3E60184C2C3C216000F03F00A0
:1055600040F4A050012A04D0022A05D006E0012010
:10557000F0BD40F0400001E040F0C0000E49283985
:10558000086042B9286810F0840F01D063B110E0C0
:105590005B1EF7D20DE0286810F0450F06D01BB156
:1055A000286810F0050F04D03E60E0E75B1EF2D2E1
:1055B000F6E73E600020F0BD342C014003490A6844
:1055C00022F0FF0202430A6070470000042C0140F1
:1055D00000B587B014216846FAF73CFE1848016808
:1055E00041F400610160006800F400600590144817
:1055F0001438016841F004010160016801F0040100
:105600000591016841F0080101600068694600F0F9
:10561000080005904FF4F8500090022001900120FE
:105620000290032003900C2004900648FBF7A4FB93
:105630000420009069460448FBF79EFB07B000BDBC
:105640004438024000080240000C02400170090A80
:10565000417070470170090A4170090A8170090A96
:10566000C170704770B50C460646154691B204F1FC
:105670001A00FFF7EBFF3078032806D1290C04F15C
:105680001400BDE87040FFF7E1BF70BD70B504467F
:1056900000F040F8050035D1607901282BD10020B9
:1056A00060712078032826D104F130004FF4007196
:1056B0000646FAF7CFFD14493046FFF7CBFF1349F2
:1056C00004F50570FFF7C6FF04F506702169FFF7C2
:1056D000C1FF04F50770E168FFF7BCFF0C4904F552
:1056E0000B70FFF7B7FF226A0123521CE26160785A
:1056F0003146FDF7EBFE002260781146FDF7ACFE67
:1057000000B10125284670BD52526141727241615B
:10571000000055AA70B504460079002548B104F18F
:105720003001607801230E46E269FDF7CFFE10B12B
:105730000125284670BD00202071E169606A0A1ABF
:10574000A0698242F5D2E278022AF2D10A18607882
:1057500001233146FDF7BAFEEBE7000070B50446C1
:105760000020124A124D491E13E05378EB5C567824
:10577000761C06F03F0656700D2B12D00A2B10D067
:10578000A3F16106192E01D8203BDBB22354401C43
:10579000C0B2567813789E4201D08842E5DB0020E3
:1057A00070BD0028F5D00021215470BD08000020F4
:1057B000DC010020012202490248FCF7C1BA0000C6
:1057C0000A0000201C02002070B50E4604004FF0B5
:1057D00009050CD0206850B1017841B1A188C28878
:1057E000914204D14078FDF769FEC00703D0002044
:1057F0003060284670BD00252068F9E700061016C5
:105800000006101600000000000000000102030462
:10581000060708090000000001020304FF002CFF36
:105820002EDFFF013C321100090204D813E51448B1
:105830002C0C33783A333BFB3E004311161039925F
:1058400035DA221A37C3230034C0361A068807C057
:105850000D870E414C0048005B0042034A812199AC
:105860002440253826825C00630046220C3C61708F
:1058700062807C05208028306C006D806E00700294
:10588000719473C13D345A571240171118431900CF
:105890001A4B320937C04FCA50A85A236D003D3801
:1058A000FF00E57FF9C04124E01476FF33A04220D9
:1058B00043184C0087D5883FD703D910D382C80836
:1058C000C9807C007D007C037D487D487C087D206C
:1058D0007D107D0E9000910E911A9131915A91692F
:1058E0009175917E9188918F919691A391AF91C47A
:1058F00091D791E891209200930693E39305930545
:1059000093009304930093009300930093009300FB
:1059100093009600970897199702970C9724973051
:105920009728972697029798978097009700C3ED3E
:10593000A400A800C511C651BF80C710B666B8A59F
:10594000B764B97CB3AFB497B5FFB0C5B194B20F2B
:10595000C45CC064C14B8C00863D500051C8529657
:105960005300540055005AC85B965C00D302C3ED47
:105970007F00DA09E51FE167E000DD7F0500FF0039
:10598000DA10D703DF0033803C40E1770000FF01ED
:10599000E014E177E51FD703DA10E000FF00DA0931
:1059A000D703DF0233A03C00E167FF01E000E10024
:1059B000E500D700DA00E000000000000000000071
:1059C00000000000000000003F4000000000000058
:1059D00000003000400030004000000009000BC013
:1059E0003D000BC03D00090018C024407FE022406C
:1059F00031800000180024C01B000D80324001805F
:105A000003801C4027401C800740004010006000BD
:105A100000000000000000000000000000001F80E7
:105A2000204040200000402020401F800000000057
:105A3000090006001F8006000900000004000400A1
:105A40003F8004000400000000100060000000001F
:105A50000000000004000400040004000400000032
:105A6000000000400000000000000000002001C015
:105A700006003800400000001F80204020402040E9
:105A80001F800000000010403FC0004000000000E8
:105A900018C02140224024401840000010802040BF
:105AA000244024401B80000002000D0011003FC074
:105AB000014000003C80244024402440238000001A
:105AC0001F80244024403440038000003000200028
:105AD00027C03800200000001B80244024402440C0
